{
    "_format": "hh-sol-artifact-1",
    "contractName": "NFTTicket",
    "sourceName": "contracts/NFTTICKET.sol",
    "abi": [
        {
            "inputs": [],
            "stateMutability": "nonpayable",
            "type": "constructor"
        },
        {
            "anonymous": false,
            "inputs": [
                {
                    "indexed": true,
                    "internalType": "address",
                    "name": "owner",
                    "type": "address"
                },
                {
                    "indexed": true,
                    "internalType": "address",
                    "name": "approved",
                    "type": "address"
                },
                {
                    "indexed": true,
                    "internalType": "uint256",
                    "name": "tokenId",
                    "type": "uint256"
                }
            ],
            "name": "Approval",
            "type": "event"
        },
        {
            "anonymous": false,
            "inputs": [
                {
                    "indexed": true,
                    "internalType": "address",
                    "name": "owner",
                    "type": "address"
                },
                {
                    "indexed": true,
                    "internalType": "address",
                    "name": "operator",
                    "type": "address"
                },
                {
                    "indexed": false,
                    "internalType": "bool",
                    "name": "approved",
                    "type": "bool"
                }
            ],
            "name": "ApprovalForAll",
            "type": "event"
        },
        {
            "anonymous": false,
            "inputs": [
                {
                    "indexed": true,
                    "internalType": "address",
                    "name": "previousOwner",
                    "type": "address"
                },
                {
                    "indexed": true,
                    "internalType": "address",
                    "name": "newOwner",
                    "type": "address"
                }
            ],
            "name": "OwnershipTransferred",
            "type": "event"
        },
        {
            "anonymous": false,
            "inputs": [
                {
                    "indexed": true,
                    "internalType": "address",
                    "name": "from",
                    "type": "address"
                },
                {
                    "indexed": true,
                    "internalType": "address",
                    "name": "to",
                    "type": "address"
                },
                {
                    "indexed": true,
                    "internalType": "uint256",
                    "name": "tokenId",
                    "type": "uint256"
                }
            ],
            "name": "Transfer",
            "type": "event"
        },
        {
            "inputs": [
                {
                    "internalType": "address",
                    "name": "to",
                    "type": "address"
                },
                {
                    "internalType": "uint256",
                    "name": "tokenId",
                    "type": "uint256"
                }
            ],
            "name": "approve",
            "outputs": [],
            "stateMutability": "nonpayable",
            "type": "function"
        },
        {
            "inputs": [
                {
                    "internalType": "address",
                    "name": "owner",
                    "type": "address"
                }
            ],
            "name": "balanceOf",
            "outputs": [
                {
                    "internalType": "uint256",
                    "name": "",
                    "type": "uint256"
                }
            ],
            "stateMutability": "view",
            "type": "function"
        },
        {
            "inputs": [
                {
                    "internalType": "uint256",
                    "name": "tokenId",
                    "type": "uint256"
                }
            ],
            "name": "getApproved",
            "outputs": [
                {
                    "internalType": "address",
                    "name": "",
                    "type": "address"
                }
            ],
            "stateMutability": "view",
            "type": "function"
        },
        {
            "inputs": [
                {
                    "internalType": "address",
                    "name": "owner",
                    "type": "address"
                },
                {
                    "internalType": "address",
                    "name": "operator",
                    "type": "address"
                }
            ],
            "name": "isApprovedForAll",
            "outputs": [
                {
                    "internalType": "bool",
                    "name": "",
                    "type": "bool"
                }
            ],
            "stateMutability": "view",
            "type": "function"
        },
        {
            "inputs": [],
            "name": "maxSupply",
            "outputs": [
                {
                    "internalType": "uint256",
                    "name": "",
                    "type": "uint256"
                }
            ],
            "stateMutability": "view",
            "type": "function"
        },
        {
            "inputs": [
                {
                    "internalType": "address",
                    "name": "recipient",
                    "type": "address"
                }
            ],
            "name": "mintNFT",
            "outputs": [
                {
                    "internalType": "uint256",
                    "name": "",
                    "type": "uint256"
                }
            ],
            "stateMutability": "payable",
            "type": "function"
        },
        {
            "inputs": [],
            "name": "name",
            "outputs": [
                {
                    "internalType": "string",
                    "name": "",
                    "type": "string"
                }
            ],
            "stateMutability": "view",
            "type": "function"
        },
        {
            "inputs": [],
            "name": "owner",
            "outputs": [
                {
                    "internalType": "address",
                    "name": "",
                    "type": "address"
                }
            ],
            "stateMutability": "view",
            "type": "function"
        },
        {
            "inputs": [
                {
                    "internalType": "uint256",
                    "name": "tokenId",
                    "type": "uint256"
                }
            ],
            "name": "ownerOf",
            "outputs": [
                {
                    "internalType": "address",
                    "name": "",
                    "type": "address"
                }
            ],
            "stateMutability": "view",
            "type": "function"
        },
        {
            "inputs": [],
            "name": "price",
            "outputs": [
                {
                    "internalType": "uint256",
                    "name": "",
                    "type": "uint256"
                }
            ],
            "stateMutability": "view",
            "type": "function"
        },
        {
            "inputs": [],
            "name": "renounceOwnership",
            "outputs": [],
            "stateMutability": "nonpayable",
            "type": "function"
        },
        {
            "inputs": [
                {
                    "internalType": "address",
                    "name": "from",
                    "type": "address"
                },
                {
                    "internalType": "address",
                    "name": "to",
                    "type": "address"
                },
                {
                    "internalType": "uint256",
                    "name": "tokenId",
                    "type": "uint256"
                }
            ],
            "name": "safeTransferFrom",
            "outputs": [],
            "stateMutability": "nonpayable",
            "type": "function"
        },
        {
            "inputs": [
                {
                    "internalType": "address",
                    "name": "from",
                    "type": "address"
                },
                {
                    "internalType": "address",
                    "name": "to",
                    "type": "address"
                },
                {
                    "internalType": "uint256",
                    "name": "tokenId",
                    "type": "uint256"
                },
                {
                    "internalType": "bytes",
                    "name": "_data",
                    "type": "bytes"
                }
            ],
            "name": "safeTransferFrom",
            "outputs": [],
            "stateMutability": "nonpayable",
            "type": "function"
        },
        {
            "inputs": [
                {
                    "internalType": "address",
                    "name": "operator",
                    "type": "address"
                },
                {
                    "internalType": "bool",
                    "name": "approved",
                    "type": "bool"
                }
            ],
            "name": "setApprovalForAll",
            "outputs": [],
            "stateMutability": "nonpayable",
            "type": "function"
        },
        {
            "inputs": [
                {
                    "internalType": "bytes4",
                    "name": "interfaceId",
                    "type": "bytes4"
                }
            ],
            "name": "supportsInterface",
            "outputs": [
                {
                    "internalType": "bool",
                    "name": "",
                    "type": "bool"
                }
            ],
            "stateMutability": "view",
            "type": "function"
        },
        {
            "inputs": [],
            "name": "symbol",
            "outputs": [
                {
                    "internalType": "string",
                    "name": "",
                    "type": "string"
                }
            ],
            "stateMutability": "view",
            "type": "function"
        },
        {
            "inputs": [
                {
                    "internalType": "uint256",
                    "name": "tokenId",
                    "type": "uint256"
                }
            ],
            "name": "tokenURI",
            "outputs": [
                {
                    "internalType": "string",
                    "name": "",
                    "type": "string"
                }
            ],
            "stateMutability": "view",
            "type": "function"
        },
        {
            "inputs": [
                {
                    "internalType": "address",
                    "name": "from",
                    "type": "address"
                },
                {
                    "internalType": "address",
                    "name": "to",
                    "type": "address"
                },
                {
                    "internalType": "uint256",
                    "name": "tokenId",
                    "type": "uint256"
                }
            ],
            "name": "transferFrom",
            "outputs": [],
            "stateMutability": "nonpayable",
            "type": "function"
        },
        {
            "inputs": [
                {
                    "internalType": "address",
                    "name": "newOwner",
                    "type": "address"
                }
            ],
            "name": "transferOwnership",
            "outputs": [],
            "stateMutability": "nonpayable",
            "type": "function"
        },
        {
            "inputs": [
                {
                    "internalType": "address payable",
                    "name": "addr",
                    "type": "address"
                }
            ],
            "name": "withdraw",
            "outputs": [],
            "stateMutability": "nonpayable",
            "type": "function"
        }
    ],
    "bytecode": "0x6080604052661550f7dca70000600955600a80553480156200002057600080fd5b506040518060400160405280600981526020017f4e46545469636b657400000000000000000000000000000000000000000000008152506040518060400160405280600381526020017f4e465400000000000000000000000000000000000000000000000000000000008152508160009080519060200190620000a5929190620001b5565b508060019080519060200190620000be929190620001b5565b505050620000e1620000d5620000e760201b60201c565b620000ef60201b60201c565b620002ca565b600033905090565b6000600760009054906101000a900473ffffffffffffffffffffffffffffffffffffffff16905081600760006101000a81548173ffffffffffffffffffffffffffffffffffffffff021916908373ffffffffffffffffffffffffffffffffffffffff1602179055508173ffffffffffffffffffffffffffffffffffffffff168173ffffffffffffffffffffffffffffffffffffffff167f8be0079c531659141344cd1fd0a4f28419497f9722a3daafe3b4186f6b6457e060405160405180910390a35050565b828054620001c39062000265565b90600052602060002090601f016020900481019282620001e7576000855562000233565b82601f106200020257805160ff191683800117855562000233565b8280016001018555821562000233579182015b828111156200023257825182559160200191906001019062000215565b5b50905062000242919062000246565b5090565b5b808211156200026157600081600090555060010162000247565b5090565b600060028204905060018216806200027e57607f821691505b602082108114156200029557620002946200029b565b5b50919050565b7f4e487b7100000000000000000000000000000000000000000000000000000000600052602260045260246000fd5b612ef480620002da6000396000f3fe60806040526004361061011f5760003560e01c8063715018a6116100a0578063b88d4fde11610064578063b88d4fde146103d8578063c87b56dd14610401578063d5abeb011461043e578063e985e9c514610469578063f2fde38b146104a65761011f565b8063715018a6146103175780638da5cb5b1461032e57806395d89b4114610359578063a035b1fe14610384578063a22cb465146103af5761011f565b806342842e0e116100e757806342842e0e1461021b57806351cff8d91461024457806354ba0f271461026d5780636352211e1461029d57806370a08231146102da5761011f565b806301ffc9a71461012457806306fdde0314610161578063081812fc1461018c578063095ea7b3146101c957806323b872dd146101f2575b600080fd5b34801561013057600080fd5b5061014b60048036038101906101469190611fcf565b6104cf565b6040516101589190612813565b60405180910390f35b34801561016d57600080fd5b506101766105b1565b604051610183919061282e565b60405180910390f35b34801561019857600080fd5b506101b360048036038101906101ae9190612021565b610643565b6040516101c091906127ac565b60405180910390f35b3480156101d557600080fd5b506101f060048036038101906101eb9190611f93565b6106c8565b005b3480156101fe57600080fd5b5061021960048036038101906102149190611e8d565b6107e0565b005b34801561022757600080fd5b50610242600480360381019061023d9190611e8d565b610840565b005b34801561025057600080fd5b5061026b60048036038101906102669190611e28565b610860565b005b61028760048036038101906102829190611dff565b61092c565b6040516102949190612a90565b60405180910390f35b3480156102a957600080fd5b506102c460048036038101906102bf9190612021565b61099d565b6040516102d191906127ac565b60405180910390f35b3480156102e657600080fd5b5061030160048036038101906102fc9190611dff565b610a4f565b60405161030e9190612a90565b60405180910390f35b34801561032357600080fd5b5061032c610b07565b005b34801561033a57600080fd5b50610343610b8f565b60405161035091906127ac565b60405180910390f35b34801561036557600080fd5b5061036e610bb9565b60405161037b919061282e565b60405180910390f35b34801561039057600080fd5b50610399610c4b565b6040516103a69190612a90565b60405180910390f35b3480156103bb57600080fd5b506103d660048036038101906103d19190611f57565b610c51565b005b3480156103e457600080fd5b506103ff60048036038101906103fa9190611edc565b610c67565b005b34801561040d57600080fd5b5061042860048036038101906104239190612021565b610cc9565b604051610435919061282e565b60405180910390f35b34801561044a57600080fd5b50610453610e1b565b6040516104609190612a90565b60405180910390f35b34801561047557600080fd5b50610490600480360381019061048b9190611e51565b610e21565b60405161049d9190612813565b60405180910390f35b3480156104b257600080fd5b506104cd60048036038101906104c89190611dff565b610eb5565b005b60007f80ac58cd000000000000000000000000000000000000000000000000000000007bffffffffffffffffffffffffffffffffffffffffffffffffffffffff1916827bffffffffffffffffffffffffffffffffffffffffffffffffffffffff1916148061059a57507f5b5e139f000000000000000000000000000000000000000000000000000000007bffffffffffffffffffffffffffffffffffffffffffffffffffffffff1916827bffffffffffffffffffffffffffffffffffffffffffffffffffffffff1916145b806105aa57506105a982610fad565b5b9050919050565b6060600080546105c090612cd2565b80601f01602080910402602001604051908101604052809291908181526020018280546105ec90612cd2565b80156106395780601f1061060e57610100808354040283529160200191610639565b820191906000526020600020905b81548152906001019060200180831161061c57829003601f168201915b5050505050905090565b600061064e82611017565b61068d576040517f08c379a0000000000000000000000000000000000000000000000000000000008152600401610684906129d0565b60405180910390fd5b6004600083815260200190815260200160002060009054906101000a900473ffffffffffffffffffffffffffffffffffffffff169050919050565b60006106d38261099d565b90508073ffffffffffffffffffffffffffffffffffffffff168373ffffffffffffffffffffffffffffffffffffffff161415610744576040517f08c379a000000000000000000000000000000000000000000000000000000000815260040161073b90612a50565b60405180910390fd5b8073ffffffffffffffffffffffffffffffffffffffff16610763611083565b73ffffffffffffffffffffffffffffffffffffffff16148061079257506107918161078c611083565b610e21565b5b6107d1576040517f08c379a00000000000000000000000000000000000000000000000000000000081526004016107c890612930565b60405180910390fd5b6107db838361108b565b505050565b6107f16107eb611083565b82611144565b610830576040517f08c379a000000000000000000000000000000000000000000000000000000000815260040161082790612a70565b60405180910390fd5b61083b838383611222565b505050565b61085b83838360405180602001604052806000815250610c67565b505050565b610868611083565b73ffffffffffffffffffffffffffffffffffffffff16610886610b8f565b73ffffffffffffffffffffffffffffffffffffffff16146108dc576040517f08c379a00000000000000000000000000000000000000000000000000000000081526004016108d3906129f0565b60405180910390fd5b60004790508173ffffffffffffffffffffffffffffffffffffffff166108fc829081150290604051600060405180830381858888f19350505050158015610927573d6000803e3d6000fd5b505050565b60006009543414610972576040517f08c379a0000000000000000000000000000000000000000000000000000000008152600401610969906128f0565b60405180910390fd5b61097c600861147e565b60006109886008611494565b905061099483826114a2565b80915050919050565b6000806002600084815260200190815260200160002060009054906101000a900473ffffffffffffffffffffffffffffffffffffffff169050600073ffffffffffffffffffffffffffffffffffffffff168173ffffffffffffffffffffffffffffffffffffffff161415610a46576040517f08c379a0000000000000000000000000000000000000000000000000000000008152600401610a3d90612970565b60405180910390fd5b80915050919050565b60008073ffffffffffffffffffffffffffffffffffffffff168273ffffffffffffffffffffffffffffffffffffffff161415610ac0576040517f08c379a0000000000000000000000000000000000000000000000000000000008152600401610ab790612950565b60405180910390fd5b600360008373ffffffffffffffffffffffffffffffffffffffff1673ffffffffffffffffffffffffffffffffffffffff168152602001908152602001600020549050919050565b610b0f611083565b73ffffffffffffffffffffffffffffffffffffffff16610b2d610b8f565b73ffffffffffffffffffffffffffffffffffffffff1614610b83576040517f08c379a0000000000000000000000000000000000000000000000000000000008152600401610b7a906129f0565b60405180910390fd5b610b8d6000611670565b565b6000600760009054906101000a900473ffffffffffffffffffffffffffffffffffffffff16905090565b606060018054610bc890612cd2565b80601f0160208091040260200160405190810160405280929190818152602001828054610bf490612cd2565b8015610c415780601f10610c1657610100808354040283529160200191610c41565b820191906000526020600020905b815481529060010190602001808311610c2457829003601f168201915b5050505050905090565b60095481565b610c63610c5c611083565b8383611736565b5050565b610c78610c72611083565b83611144565b610cb7576040517f08c379a0000000000000000000000000000000000000000000000000000000008152600401610cae90612a70565b60405180910390fd5b610cc3848484846118a3565b50505050565b6060610cd482611017565b610d13576040517f08c379a0000000000000000000000000000000000000000000000000000000008152600401610d0a906129b0565b60405180910390fd5b6000600660008481526020019081526020016000208054610d3390612cd2565b80601f0160208091040260200160405190810160405280929190818152602001828054610d5f90612cd2565b8015610dac5780601f10610d8157610100808354040283529160200191610dac565b820191906000526020600020905b815481529060010190602001808311610d8f57829003601f168201915b505050505090506000610dbd6118ff565b9050600081511415610dd3578192505050610e16565b600082511115610e08578082604051602001610df0929190612788565b60405160208183030381529060405292505050610e16565b610e1184611916565b925050505b919050565b600a5481565b6000600560008473ffffffffffffffffffffffffffffffffffffffff1673ffffffffffffffffffffffffffffffffffffffff16815260200190815260200160002060008373ffffffffffffffffffffffffffffffffffffffff1673ffffffffffffffffffffffffffffffffffffffff16815260200190815260200160002060009054906101000a900460ff16905092915050565b610ebd611083565b73ffffffffffffffffffffffffffffffffffffffff16610edb610b8f565b73ffffffffffffffffffffffffffffffffffffffff1614610f31576040517f08c379a0000000000000000000000000000000000000000000000000000000008152600401610f28906129f0565b60405180910390fd5b600073ffffffffffffffffffffffffffffffffffffffff168173ffffffffffffffffffffffffffffffffffffffff161415610fa1576040517f08c379a0000000000000000000000000000000000000000000000000000000008152600401610f9890612870565b60405180910390fd5b610faa81611670565b50565b60007f01ffc9a7000000000000000000000000000000000000000000000000000000007bffffffffffffffffffffffffffffffffffffffffffffffffffffffff1916827bffffffffffffffffffffffffffffffffffffffffffffffffffffffff1916149050919050565b60008073ffffffffffffffffffffffffffffffffffffffff166002600084815260200190815260200160002060009054906101000a900473ffffffffffffffffffffffffffffffffffffffff1673ffffffffffffffffffffffffffffffffffffffff1614159050919050565b600033905090565b816004600083815260200190815260200160002060006101000a81548173ffffffffffffffffffffffffffffffffffffffff021916908373ffffffffffffffffffffffffffffffffffffffff160217905550808273ffffffffffffffffffffffffffffffffffffffff166110fe8361099d565b73ffffffffffffffffffffffffffffffffffffffff167f8c5be1e5ebec7d5bd14f71427d1e84f3dd0314c0f7b2291e5b200ac8c7c3b92560405160405180910390a45050565b600061114f82611017565b61118e576040517f08c379a000000000000000000000000000000000000000000000000000000000815260040161118590612910565b60405180910390fd5b60006111998361099d565b90508073ffffffffffffffffffffffffffffffffffffffff168473ffffffffffffffffffffffffffffffffffffffff16148061120857508373ffffffffffffffffffffffffffffffffffffffff166111f084610643565b73ffffffffffffffffffffffffffffffffffffffff16145b8061121957506112188185610e21565b5b91505092915050565b8273ffffffffffffffffffffffffffffffffffffffff166112428261099d565b73ffffffffffffffffffffffffffffffffffffffff1614611298576040517f08c379a000000000000000000000000000000000000000000000000000000000815260040161128f90612a10565b60405180910390fd5b600073ffffffffffffffffffffffffffffffffffffffff168273ffffffffffffffffffffffffffffffffffffffff161415611308576040517f08c379a00000000000000000000000000000000000000000000000000000000081526004016112ff906128b0565b60405180910390fd5b6113138383836119bd565b61131e60008261108b565b6001600360008573ffffffffffffffffffffffffffffffffffffffff1673ffffffffffffffffffffffffffffffffffffffff168152602001908152602001600020600082825461136e9190612bd6565b925050819055506001600360008473ffffffffffffffffffffffffffffffffffffffff1673ffffffffffffffffffffffffffffffffffffffff16815260200190815260200160002060008282546113c59190612b4f565b92505081905550816002600083815260200190815260200160002060006101000a81548173ffffffffffffffffffffffffffffffffffffffff021916908373ffffffffffffffffffffffffffffffffffffffff160217905550808273ffffffffffffffffffffffffffffffffffffffff168473ffffffffffffffffffffffffffffffffffffffff167fddf252ad1be2c89b69c2b068fc378daa952ba7f163c4a11628f55a4df523b3ef60405160405180910390a4505050565b6001816000016000828254019250508190555050565b600081600001549050919050565b600073ffffffffffffffffffffffffffffffffffffffff168273ffffffffffffffffffffffffffffffffffffffff161415611512576040517f08c379a000000000000000000000000000000000000000000000000000000000815260040161150990612990565b60405180910390fd5b61151b81611017565b1561155b576040517f08c379a000000000000000000000000000000000000000000000000000000000815260040161155290612890565b60405180910390fd5b611567600083836119bd565b6001600360008473ffffffffffffffffffffffffffffffffffffffff1673ffffffffffffffffffffffffffffffffffffffff16815260200190815260200160002060008282546115b79190612b4f565b92505081905550816002600083815260200190815260200160002060006101000a81548173ffffffffffffffffffffffffffffffffffffffff021916908373ffffffffffffffffffffffffffffffffffffffff160217905550808273ffffffffffffffffffffffffffffffffffffffff16600073ffffffffffffffffffffffffffffffffffffffff167fddf252ad1be2c89b69c2b068fc378daa952ba7f163c4a11628f55a4df523b3ef60405160405180910390a45050565b6000600760009054906101000a900473ffffffffffffffffffffffffffffffffffffffff16905081600760006101000a81548173ffffffffffffffffffffffffffffffffffffffff021916908373ffffffffffffffffffffffffffffffffffffffff1602179055508173ffffffffffffffffffffffffffffffffffffffff168173ffffffffffffffffffffffffffffffffffffffff167f8be0079c531659141344cd1fd0a4f28419497f9722a3daafe3b4186f6b6457e060405160405180910390a35050565b8173ffffffffffffffffffffffffffffffffffffffff168373ffffffffffffffffffffffffffffffffffffffff1614156117a5576040517f08c379a000000000000000000000000000000000000000000000000000000000815260040161179c906128d0565b60405180910390fd5b80600560008573ffffffffffffffffffffffffffffffffffffffff1673ffffffffffffffffffffffffffffffffffffffff16815260200190815260200160002060008473ffffffffffffffffffffffffffffffffffffffff1673ffffffffffffffffffffffffffffffffffffffff16815260200190815260200160002060006101000a81548160ff0219169083151502179055508173ffffffffffffffffffffffffffffffffffffffff168373ffffffffffffffffffffffffffffffffffffffff167f17307eab39ab6107e8899845ad3d59bd9653f200f220920489ca2b5937696c31836040516118969190612813565b60405180910390a3505050565b6118ae848484611222565b6118ba848484846119c2565b6118f9576040517f08c379a00000000000000000000000000000000000000000000000000000000081526004016118f090612850565b60405180910390fd5b50505050565b606060405180602001604052806000815250905090565b606061192182611017565b611960576040517f08c379a000000000000000000000000000000000000000000000000000000000815260040161195790612a30565b60405180910390fd5b600061196a6118ff565b9050600081511161198a57604051806020016040528060008152506119b5565b8061199484611b59565b6040516020016119a5929190612788565b6040516020818303038152906040525b915050919050565b505050565b60006119e38473ffffffffffffffffffffffffffffffffffffffff16611d06565b15611b4c578373ffffffffffffffffffffffffffffffffffffffff1663150b7a02611a0c611083565b8786866040518563ffffffff1660e01b8152600401611a2e94939291906127c7565b602060405180830381600087803b158015611a4857600080fd5b505af1925050508015611a7957506040513d601f19601f82011682018060405250810190611a769190611ff8565b60015b611afc573d8060008114611aa9576040519150601f19603f3d011682016040523d82523d6000602084013e611aae565b606091505b50600081511415611af4576040517f08c379a0000000000000000000000000000000000000000000000000000000008152600401611aeb90612850565b60405180910390fd5b805181602001fd5b63150b7a0260e01b7bffffffffffffffffffffffffffffffffffffffffffffffffffffffff1916817bffffffffffffffffffffffffffffffffffffffffffffffffffffffff191614915050611b51565b600190505b949350505050565b60606000821415611ba1576040518060400160405280600181526020017f30000000000000000000000000000000000000000000000000000000000000008152509050611d01565b600082905060005b60008214611bd3578080611bbc90612d04565b915050600a82611bcc9190612ba5565b9150611ba9565b60008167ffffffffffffffff811115611c15577f4e487b7100000000000000000000000000000000000000000000000000000000600052604160045260246000fd5b6040519080825280601f01601f191660200182016040528015611c475781602001600182028036833780820191505090505b5090505b60008514611cfa57600182611c609190612bd6565b9150600a85611c6f9190612d4d565b6030611c7b9190612b4f565b60f81b818381518110611cb7577f4e487b7100000000000000000000000000000000000000000000000000000000600052603260045260246000fd5b60200101907effffffffffffffffffffffffffffffffffffffffffffffffffffffffffffff1916908160001a905350600a85611cf39190612ba5565b9450611c4b565b8093505050505b919050565b600080823b905060008111915050919050565b6000611d2c611d2784612adc565b612aab565b905082815260208101848484011115611d4457600080fd5b611d4f848285612c90565b509392505050565b600081359050611d6681612e4b565b92915050565b600081359050611d7b81612e62565b92915050565b600081359050611d9081612e79565b92915050565b600081359050611da581612e90565b92915050565b600081519050611dba81612e90565b92915050565b600082601f830112611dd157600080fd5b8135611de1848260208601611d19565b91505092915050565b600081359050611df981612ea7565b92915050565b600060208284031215611e1157600080fd5b6000611e1f84828501611d57565b91505092915050565b600060208284031215611e3a57600080fd5b6000611e4884828501611d6c565b91505092915050565b60008060408385031215611e6457600080fd5b6000611e7285828601611d57565b9250506020611e8385828601611d57565b9150509250929050565b600080600060608486031215611ea257600080fd5b6000611eb086828701611d57565b9350506020611ec186828701611d57565b9250506040611ed286828701611dea565b9150509250925092565b60008060008060808587031215611ef257600080fd5b6000611f0087828801611d57565b9450506020611f1187828801611d57565b9350506040611f2287828801611dea565b925050606085013567ffffffffffffffff811115611f3f57600080fd5b611f4b87828801611dc0565b91505092959194509250565b60008060408385031215611f6a57600080fd5b6000611f7885828601611d57565b9250506020611f8985828601611d81565b9150509250929050565b60008060408385031215611fa657600080fd5b6000611fb485828601611d57565b9250506020611fc585828601611dea565b9150509250929050565b600060208284031215611fe157600080fd5b6000611fef84828501611d96565b91505092915050565b60006020828403121561200a57600080fd5b600061201884828501611dab565b91505092915050565b60006020828403121561203357600080fd5b600061204184828501611dea565b91505092915050565b61205381612c0a565b82525050565b61206281612c2e565b82525050565b600061207382612b0c565b61207d8185612b22565b935061208d818560208601612c9f565b61209681612e3a565b840191505092915050565b60006120ac82612b17565b6120b68185612b33565b93506120c6818560208601612c9f565b6120cf81612e3a565b840191505092915050565b60006120e582612b17565b6120ef8185612b44565b93506120ff818560208601612c9f565b80840191505092915050565b6000612118603283612b33565b91507f4552433732313a207472616e7366657220746f206e6f6e20455243373231526560008301527f63656976657220696d706c656d656e74657200000000000000000000000000006020830152604082019050919050565b600061217e602683612b33565b91507f4f776e61626c653a206e6577206f776e657220697320746865207a65726f206160008301527f64647265737300000000000000000000000000000000000000000000000000006020830152604082019050919050565b60006121e4601c83612b33565b91507f4552433732313a20746f6b656e20616c7265616479206d696e746564000000006000830152602082019050919050565b6000612224602483612b33565b91507f4552433732313a207472616e7366657220746f20746865207a65726f2061646460008301527f72657373000000000000000000000000000000000000000000000000000000006020830152604082019050919050565b600061228a601983612b33565b91507f4552433732313a20617070726f766520746f2063616c6c6572000000000000006000830152602082019050919050565b60006122ca601383612b33565b91507f57726f6e67207061796d656e742073656e7421000000000000000000000000006000830152602082019050919050565b600061230a602c83612b33565b91507f4552433732313a206f70657261746f7220717565727920666f72206e6f6e657860008301527f697374656e7420746f6b656e00000000000000000000000000000000000000006020830152604082019050919050565b6000612370603883612b33565b91507f4552433732313a20617070726f76652063616c6c6572206973206e6f74206f7760008301527f6e6572206e6f7220617070726f76656420666f7220616c6c00000000000000006020830152604082019050919050565b60006123d6602a83612b33565b91507f4552433732313a2062616c616e636520717565727920666f7220746865207a6560008301527f726f2061646472657373000000000000000000000000000000000000000000006020830152604082019050919050565b600061243c602983612b33565b91507f4552433732313a206f776e657220717565727920666f72206e6f6e657869737460008301527f656e7420746f6b656e00000000000000000000000000000000000000000000006020830152604082019050919050565b60006124a2602083612b33565b91507f4552433732313a206d696e7420746f20746865207a65726f20616464726573736000830152602082019050919050565b60006124e2603183612b33565b91507f45524337323155524953746f726167653a2055524920717565727920666f722060008301527f6e6f6e6578697374656e7420746f6b656e0000000000000000000000000000006020830152604082019050919050565b6000612548602c83612b33565b91507f4552433732313a20617070726f76656420717565727920666f72206e6f6e657860008301527f697374656e7420746f6b656e00000000000000000000000000000000000000006020830152604082019050919050565b60006125ae602083612b33565b91507f4f776e61626c653a2063616c6c6572206973206e6f7420746865206f776e65726000830152602082019050919050565b60006125ee602983612b33565b91507f4552433732313a207472616e73666572206f6620746f6b656e2074686174206960008301527f73206e6f74206f776e00000000000000000000000000000000000000000000006020830152604082019050919050565b6000612654602f83612b33565b91507f4552433732314d657461646174613a2055524920717565727920666f72206e6f60008301527f6e6578697374656e7420746f6b656e00000000000000000000000000000000006020830152604082019050919050565b60006126ba602183612b33565b91507f4552433732313a20617070726f76616c20746f2063757272656e74206f776e6560008301527f72000000000000000000000000000000000000000000000000000000000000006020830152604082019050919050565b6000612720603183612b33565b91507f4552433732313a207472616e736665722063616c6c6572206973206e6f74206f60008301527f776e6572206e6f7220617070726f7665640000000000000000000000000000006020830152604082019050919050565b61278281612c86565b82525050565b600061279482856120da565b91506127a082846120da565b91508190509392505050565b60006020820190506127c1600083018461204a565b92915050565b60006080820190506127dc600083018761204a565b6127e9602083018661204a565b6127f66040830185612779565b81810360608301526128088184612068565b905095945050505050565b60006020820190506128286000830184612059565b92915050565b6000602082019050818103600083015261284881846120a1565b905092915050565b600060208201905081810360008301526128698161210b565b9050919050565b6000602082019050818103600083015261288981612171565b9050919050565b600060208201905081810360008301526128a9816121d7565b9050919050565b600060208201905081810360008301526128c981612217565b9050919050565b600060208201905081810360008301526128e98161227d565b9050919050565b60006020820190508181036000830152612909816122bd565b9050919050565b60006020820190508181036000830152612929816122fd565b9050919050565b6000602082019050818103600083015261294981612363565b9050919050565b60006020820190508181036000830152612969816123c9565b9050919050565b600060208201905081810360008301526129898161242f565b9050919050565b600060208201905081810360008301526129a981612495565b9050919050565b600060208201905081810360008301526129c9816124d5565b9050919050565b600060208201905081810360008301526129e98161253b565b9050919050565b60006020820190508181036000830152612a09816125a1565b9050919050565b60006020820190508181036000830152612a29816125e1565b9050919050565b60006020820190508181036000830152612a4981612647565b9050919050565b60006020820190508181036000830152612a69816126ad565b9050919050565b60006020820190508181036000830152612a8981612713565b9050919050565b6000602082019050612aa56000830184612779565b92915050565b6000604051905081810181811067ffffffffffffffff82111715612ad257612ad1612e0b565b5b8060405250919050565b600067ffffffffffffffff821115612af757612af6612e0b565b5b601f19601f8301169050602081019050919050565b600081519050919050565b600081519050919050565b600082825260208201905092915050565b600082825260208201905092915050565b600081905092915050565b6000612b5a82612c86565b9150612b6583612c86565b9250827fffffffffffffffffffffffffffffffffffffffffffffffffffffffffffffffff03821115612b9a57612b99612d7e565b5b828201905092915050565b6000612bb082612c86565b9150612bbb83612c86565b925082612bcb57612bca612dad565b5b828204905092915050565b6000612be182612c86565b9150612bec83612c86565b925082821015612bff57612bfe612d7e565b5b828203905092915050565b6000612c1582612c66565b9050919050565b6000612c2782612c66565b9050919050565b60008115159050919050565b60007fffffffff0000000000000000000000000000000000000000000000000000000082169050919050565b600073ffffffffffffffffffffffffffffffffffffffff82169050919050565b6000819050919050565b82818337600083830152505050565b60005b83811015612cbd578082015181840152602081019050612ca2565b83811115612ccc576000848401525b50505050565b60006002820490506001821680612cea57607f821691505b60208210811415612cfe57612cfd612ddc565b5b50919050565b6000612d0f82612c86565b91507fffffffffffffffffffffffffffffffffffffffffffffffffffffffffffffffff821415612d4257612d41612d7e565b5b600182019050919050565b6000612d5882612c86565b9150612d6383612c86565b925082612d7357612d72612dad565b5b828206905092915050565b7f4e487b7100000000000000000000000000000000000000000000000000000000600052601160045260246000fd5b7f4e487b7100000000000000000000000000000000000000000000000000000000600052601260045260246000fd5b7f4e487b7100000000000000000000000000000000000000000000000000000000600052602260045260246000fd5b7f4e487b7100000000000000000000000000000000000000000000000000000000600052604160045260246000fd5b6000601f19601f8301169050919050565b612e5481612c0a565b8114612e5f57600080fd5b50565b612e6b81612c1c565b8114612e7657600080fd5b50565b612e8281612c2e565b8114612e8d57600080fd5b50565b612e9981612c3a565b8114612ea457600080fd5b50565b612eb081612c86565b8114612ebb57600080fd5b5056fea26469706673582212200fbbf36143a9a9887980a660be5f3f90aade8d76454152e09124c9071a60e06364736f6c63430008000033",
    "linkReferences": {},
    "deployedLinkReferences": {}
}